{
  "_format": "hh-sol-artifact-1",
  "contractName": "Ethersquare",
  "sourceName": "contracts/Ethersquare.sol",
  "abi": [
    {
      "inputs": [
        {
          "internalType": "string",
          "name": "text",
          "type": "string"
        }
      ],
      "name": "addPost",
      "outputs": [],
      "stateMutability": "payable",
      "type": "function"
    },
    {
      "inputs": [],
      "name": "getPosts",
      "outputs": [
        {
          "components": [
            {
              "internalType": "uint256",
              "name": "id",
              "type": "uint256"
            },
            {
              "internalType": "address",
              "name": "senderAddress",
              "type": "address"
            },
            {
              "internalType": "uint256",
              "name": "blockTimestamp",
              "type": "uint256"
            },
            {
              "internalType": "uint256",
              "name": "transactionValue",
              "type": "uint256"
            },
            {
              "internalType": "string",
              "name": "text",
              "type": "string"
            }
          ],
          "internalType": "struct Ethersquare.Post[]",
          "name": "",
          "type": "tuple[]"
        }
      ],
      "stateMutability": "view",
      "type": "function"
    },
    {
      "inputs": [
        {
          "internalType": "uint256",
          "name": "",
          "type": "uint256"
        }
      ],
      "name": "posts",
      "outputs": [
        {
          "internalType": "uint256",
          "name": "id",
          "type": "uint256"
        },
        {
          "internalType": "address",
          "name": "senderAddress",
          "type": "address"
        },
        {
          "internalType": "uint256",
          "name": "blockTimestamp",
          "type": "uint256"
        },
        {
          "internalType": "uint256",
          "name": "transactionValue",
          "type": "uint256"
        },
        {
          "internalType": "string",
          "name": "text",
          "type": "string"
        }
      ],
      "stateMutability": "view",
      "type": "function"
    }
  ],
  "bytecode": "0x608060405234801561001057600080fd5b50610d8e806100206000396000f3fe6080604052600436106100345760003560e01c80630b1e7f831461003957806341f3004a1461007a578063a6322819146100a5575b600080fd5b34801561004557600080fd5b50610060600480360381019061005b91906104d5565b6100c1565b6040516100719594939291906105e2565b60405180910390f35b34801561008657600080fd5b5061008f6101af565b60405161009c91906107dc565b60405180910390f35b6100bf60048036038101906100ba9190610933565b610314565b005b600081815481106100d157600080fd5b90600052602060002090600502016000915090508060000154908060010160009054906101000a900473ffffffffffffffffffffffffffffffffffffffff169080600201549080600301549080600401805461012c906109ab565b80601f0160208091040260200160405190810160405280929190818152602001828054610158906109ab565b80156101a55780601f1061017a576101008083540402835291602001916101a5565b820191906000526020600020905b81548152906001019060200180831161018857829003601f168201915b5050505050905085565b60606000805480602002602001604051908101604052809291908181526020016000905b8282101561030b57838290600052602060002090600502016040518060a0016040529081600082015481526020016001820160009054906101000a900473ffffffffffffffffffffffffffffffffffffffff1673ffffffffffffffffffffffffffffffffffffffff1673ffffffffffffffffffffffffffffffffffffffff168152602001600282015481526020016003820154815260200160048201805461027a906109ab565b80601f01602080910402602001604051908101604052809291908181526020018280546102a6906109ab565b80156102f35780601f106102c8576101008083540402835291602001916102f3565b820191906000526020600020905b8154815290600101906020018083116102d657829003601f168201915b505050505081525050815260200190600101906101d3565b50505050905090565b6000815111610358576040517f08c379a000000000000000000000000000000000000000000000000000000000815260040161034f90610a28565b60405180910390fd5b6101f48151111561039e576040517f08c379a000000000000000000000000000000000000000000000000000000000815260040161039590610aba565b60405180910390fd5b60006040518060a0016040528060008054905081526020013373ffffffffffffffffffffffffffffffffffffffff1681526020014281526020013481526020018381525090806001815401808255809150506001900390600052602060002090600502016000909190919091506000820151816000015560208201518160010160006101000a81548173ffffffffffffffffffffffffffffffffffffffff021916908373ffffffffffffffffffffffffffffffffffffffff160217905550604082015181600201556060820151816003015560808201518160040190816104859190610c86565b50505050565b6000604051905090565b600080fd5b600080fd5b6000819050919050565b6104b28161049f565b81146104bd57600080fd5b50565b6000813590506104cf816104a9565b92915050565b6000602082840312156104eb576104ea610495565b5b60006104f9848285016104c0565b91505092915050565b61050b8161049f565b82525050565b600073ffffffffffffffffffffffffffffffffffffffff82169050919050565b600061053c82610511565b9050919050565b61054c81610531565b82525050565b600081519050919050565b600082825260208201905092915050565b60005b8381101561058c578082015181840152602081019050610571565b60008484015250505050565b6000601f19601f8301169050919050565b60006105b482610552565b6105be818561055d565b93506105ce81856020860161056e565b6105d781610598565b840191505092915050565b600060a0820190506105f76000830188610502565b6106046020830187610543565b6106116040830186610502565b61061e6060830185610502565b818103608083015261063081846105a9565b90509695505050505050565b600081519050919050565b600082825260208201905092915050565b6000819050602082019050919050565b6106718161049f565b82525050565b61068081610531565b82525050565b600082825260208201905092915050565b60006106a282610552565b6106ac8185610686565b93506106bc81856020860161056e565b6106c581610598565b840191505092915050565b600060a0830160008301516106e86000860182610668565b5060208301516106fb6020860182610677565b50604083015161070e6040860182610668565b5060608301516107216060860182610668565b50608083015184820360808601526107398282610697565b9150508091505092915050565b600061075283836106d0565b905092915050565b6000602082019050919050565b60006107728261063c565b61077c8185610647565b93508360208202850161078e85610658565b8060005b858110156107ca57848403895281516107ab8582610746565b94506107b68361075a565b925060208a01995050600181019050610792565b50829750879550505050505092915050565b600060208201905081810360008301526107f68184610767565b905092915050565b600080fd5b600080fd5b7f4e487b7100000000000000000000000000000000000000000000000000000000600052604160045260246000fd5b61084082610598565b810181811067ffffffffffffffff8211171561085f5761085e610808565b5b80604052505050565b600061087261048b565b905061087e8282610837565b919050565b600067ffffffffffffffff82111561089e5761089d610808565b5b6108a782610598565b9050602081019050919050565b82818337600083830152505050565b60006108d66108d184610883565b610868565b9050828152602081018484840111156108f2576108f1610803565b5b6108fd8482856108b4565b509392505050565b600082601f83011261091a576109196107fe565b5b813561092a8482602086016108c3565b91505092915050565b60006020828403121561094957610948610495565b5b600082013567ffffffffffffffff8111156109675761096661049a565b5b61097384828501610905565b91505092915050565b7f4e487b7100000000000000000000000000000000000000000000000000000000600052602260045260246000fd5b600060028204905060018216806109c357607f821691505b6020821081036109d6576109d561097c565b5b50919050565b7f506f73742063616e6e6f7420626520656d707479000000000000000000000000600082015250565b6000610a1260148361055d565b9150610a1d826109dc565b602082019050919050565b60006020820190508181036000830152610a4181610a05565b9050919050565b7f506f73742063616e20636f6e7461696e2061206d6178696d756d206f6620353060008201527f3020636861726163746572730000000000000000000000000000000000000000602082015250565b6000610aa4602c8361055d565b9150610aaf82610a48565b604082019050919050565b60006020820190508181036000830152610ad381610a97565b9050919050565b60008190508160005260206000209050919050565b60006020601f8301049050919050565b600082821b905092915050565b600060088302610b3c7fffffffffffffffffffffffffffffffffffffffffffffffffffffffffffffffff82610aff565b610b468683610aff565b95508019841693508086168417925050509392505050565b6000819050919050565b6000610b83610b7e610b798461049f565b610b5e565b61049f565b9050919050565b6000819050919050565b610b9d83610b68565b610bb1610ba982610b8a565b848454610b0c565b825550505050565b600090565b610bc6610bb9565b610bd1818484610b94565b505050565b5b81811015610bf557610bea600082610bbe565b600181019050610bd7565b5050565b601f821115610c3a57610c0b81610ada565b610c1484610aef565b81016020851015610c23578190505b610c37610c2f85610aef565b830182610bd6565b50505b505050565b600082821c905092915050565b6000610c5d60001984600802610c3f565b1980831691505092915050565b6000610c768383610c4c565b9150826002028217905092915050565b610c8f82610552565b67ffffffffffffffff811115610ca857610ca7610808565b5b610cb282546109ab565b610cbd828285610bf9565b600060209050601f831160018114610cf05760008415610cde578287015190505b610ce88582610c6a565b865550610d50565b601f198416610cfe86610ada565b60005b82811015610d2657848901518255600182019150602085019450602081019050610d01565b86831015610d435784890151610d3f601f891682610c4c565b8355505b6001600288020188555050505b50505050505056fea26469706673582212204a22e5cfdb9c96374e14e97922d24285ed2c98fbad3eae4876cc4ef19ae4ff2364736f6c63430008180033",
  "linkReferences": {},
  "deployedLinkReferences": {}
}